{
    "contractName": "MainSystem",
    "abi": [
        {
            "inputs": [
                {
                    "internalType": "address",
                    "name": "_claimNFTAddr",
                    "type": "address"
                },
                {
                    "internalType": "address",
                    "name": "_topicFactoryAddr",
                    "type": "address"
                },
                {
                    "internalType": "address",
                    "name": "_entryPointAddr",
                    "type": "address"
                }
            ],
            "stateMutability": "nonpayable",
            "type": "constructor"
        },
        {
            "anonymous": false,
            "inputs": [
                {
                    "indexed": false,
                    "internalType": "uint256",
                    "name": "id",
                    "type": "uint256"
                },
                {
                    "indexed": false,
                    "internalType": "address",
                    "name": "clusterAddress",
                    "type": "address"
                },
                {
                    "indexed": true,
                    "internalType": "address",
                    "name": "user",
                    "type": "address"
                }
            ],
            "name": "ClusterCreated",
            "type": "event"
        },
        {
            "anonymous": false,
            "inputs": [
                {
                    "indexed": false,
                    "internalType": "uint256",
                    "name": "id",
                    "type": "uint256"
                },
                {
                    "indexed": false,
                    "internalType": "address",
                    "name": "proxyAddr",
                    "type": "address"
                }
            ],
            "name": "TopicCreated",
            "type": "event"
        },
        {
            "inputs": [
                {
                    "internalType": "address",
                    "name": "",
                    "type": "address"
                }
            ],
            "name": "addressToClusterId",
            "outputs": [
                {
                    "internalType": "uint256",
                    "name": "",
                    "type": "uint256"
                }
            ],
            "stateMutability": "view",
            "type": "function"
        },
        {
            "inputs": [
                {
                    "internalType": "address",
                    "name": "",
                    "type": "address"
                }
            ],
            "name": "addressToTopicId",
            "outputs": [
                {
                    "internalType": "uint256",
                    "name": "",
                    "type": "uint256"
                }
            ],
            "stateMutability": "view",
            "type": "function"
        },
        {
            "inputs": [],
            "name": "claimNFT",
            "outputs": [
                {
                    "internalType": "contract ClaimNFT",
                    "name": "",
                    "type": "address"
                }
            ],
            "stateMutability": "view",
            "type": "function"
        },
        {
            "inputs": [],
            "name": "claimNFTAddr",
            "outputs": [
                {
                    "internalType": "address",
                    "name": "",
                    "type": "address"
                }
            ],
            "stateMutability": "view",
            "type": "function"
        },
        {
            "inputs": [
                {
                    "internalType": "uint256",
                    "name": "",
                    "type": "uint256"
                }
            ],
            "name": "clusterIdToAddrs",
            "outputs": [
                {
                    "internalType": "address",
                    "name": "",
                    "type": "address"
                }
            ],
            "stateMutability": "view",
            "type": "function"
        },
        {
            "inputs": [
                {
                    "internalType": "bytes32",
                    "name": "_policyDigest",
                    "type": "bytes32"
                }
            ],
            "name": "createCluster",
            "outputs": [
                {
                    "internalType": "address",
                    "name": "clusterAddr",
                    "type": "address"
                }
            ],
            "stateMutability": "payable",
            "type": "function"
        },
        {
            "inputs": [
                {
                    "internalType": "bytes32",
                    "name": "digest",
                    "type": "bytes32"
                }
            ],
            "name": "createTopic",
            "outputs": [
                {
                    "internalType": "address",
                    "name": "proxyAddr",
                    "type": "address"
                }
            ],
            "stateMutability": "nonpayable",
            "type": "function"
        },
        {
            "inputs": [],
            "name": "entryPoint",
            "outputs": [
                {
                    "internalType": "contract IEntryPoint",
                    "name": "",
                    "type": "address"
                }
            ],
            "stateMutability": "view",
            "type": "function"
        },
        {
            "inputs": [],
            "name": "entryPointAddr",
            "outputs": [
                {
                    "internalType": "address",
                    "name": "",
                    "type": "address"
                }
            ],
            "stateMutability": "view",
            "type": "function"
        },
        {
            "inputs": [],
            "name": "nextClusterId",
            "outputs": [
                {
                    "internalType": "uint256",
                    "name": "",
                    "type": "uint256"
                }
            ],
            "stateMutability": "view",
            "type": "function"
        },
        {
            "inputs": [],
            "name": "nextTopicId",
            "outputs": [
                {
                    "internalType": "uint256",
                    "name": "",
                    "type": "uint256"
                }
            ],
            "stateMutability": "view",
            "type": "function"
        },
        {
            "inputs": [],
            "name": "topicFactory",
            "outputs": [
                {
                    "internalType": "contract TopicFactory",
                    "name": "",
                    "type": "address"
                }
            ],
            "stateMutability": "view",
            "type": "function"
        },
        {
            "inputs": [],
            "name": "topicFactoryAddr",
            "outputs": [
                {
                    "internalType": "address",
                    "name": "",
                    "type": "address"
                }
            ],
            "stateMutability": "view",
            "type": "function"
        },
        {
            "inputs": [
                {
                    "internalType": "uint256",
                    "name": "",
                    "type": "uint256"
                }
            ],
            "name": "topicIdToAddrs",
            "outputs": [
                {
                    "internalType": "address",
                    "name": "",
                    "type": "address"
                }
            ],
            "stateMutability": "view",
            "type": "function"
        }
    ],
    "bytecode": "60803460b857601f613fdf38819003918201601f19168301916001600160401b0383118484101760bc5780849260609460405283398101031260b85760428160d0565b906057604060516020840160d0565b920160d0565b600580546001600160a01b03199081166001600160a01b03958616179091556002805482169385169390931790925560015f8190558055600780548316939091169283179055600680549091169091179055604051613efb90816100e48239f35b5f80fd5b634e487b7160e01b5f52604160045260245ffd5b51906001600160a01b038216820360b85756fe6080806040526004361015610012575f80fd5b5f905f3560e01c9081630f5de4b2146106af5750806310a61fd6146106875780631ec56d7c1461064b5780632b899a34146106235780633480f7db1461034d57806340ff12281461031a5780634983dc44146102fd57806362b7493a146102ca578063672756ad146102a1578063b0d691fe14610278578063d02c21f41461023b578063e31a49c114610212578063e3940c28146101e95763f90ace66146100b8575f80fd5b346101e65760203660031901126101e65780602060018060a01b0360025416606460015460405194859384926313f96a9b60e11b8452600484015260043560248401523360448401525af19081156101db578291610193575b600180548452600a6020908152604080862080546001600160a01b0319166001600160a01b0387169081179091559254838752600b83528187208190558151818152808401859052929392610188927f33efc07c65d8539a2eff0483409e45d4eb8b5515bb0b85481c7fef69fa446faf91a16106eb565b600155604051908152f35b90506020813d6020116101d3575b816101ae602093836106c9565b810103126101cf57516001600160a01b03811681036101cf57610188610111565b5080fd5b3d91506101a1565b6040513d84823e3d90fd5b80fd5b50346101e657806003193601126101e6576007546040516001600160a01b039091168152602090f35b50346101e657806003193601126101e6576003546040516001600160a01b039091168152602090f35b50346101e65760203660031901126101e6576004356001600160a01b038116908190036101cf578160409160209352600983522054604051908152f35b50346101e657806003193601126101e6576006546040516001600160a01b039091168152602090f35b50346101e657806003193601126101e6576004546040516001600160a01b039091168152602090f35b50346101e65760203660031901126101e657602090600435815260088252604060018060a01b0391205416604051908152f35b50346101e657806003193601126101e65760209054604051908152f35b50346101e65760203660031901126101e6576020906004358152600a8252604060018060a01b0391205416604051908152f35b5060203660031901126105ce57660997a2bce4c00034106105e6576040516115778082019082821067ffffffffffffffff8311176105d257604091839161070e8339602081525f60208201520301905ff080156105c357600754604051906001600160a01b0316610e3180830167ffffffffffffffff8111848210176105d2576020928492611c85843981520301905ff080156105c3575f54604051611410808201946001600160a01b039094169391929167ffffffffffffffff8611848710176105d25760e0928492612ab684398652336020870152306040870152600435606087015234608087015260a086018590526001600160a01b031660c08601819052940301905ff080156105c3576001600160a01b031691803b156105ce575f809160246040518094819363f2fde38b60e01b83528860048401525af180156105c3576105ae575b508290823b156101cf57604051630f456a6160e11b8152828160048183885af190811561058e578391610599575b5050803b156101cf57819060246040518094819363189acdbd60e31b83528760048401525af1801561058e57610579575b508154825260086020908152604080842080546001600160a01b0319166001600160a01b03851690811790915584548486526009845282862081905582518181528085019290925292949261056f92909133917f4fb5bd9f92a3d39cdc33073f40de6bb1ad3a3063d549237d4131364c4a42951591a26106eb565b9055604051908152f35b6105848380926106c9565b6101cf575f6104f4565b6040513d85823e3d90fd5b816105a3916106c9565b6101cf57815f6104c3565b6105bb9193505f906106c9565b5f915f610495565b6040513d5f823e3d90fd5b5f80fd5b634e487b7160e01b5f52604160045260245ffd5b60405162461bcd60e51b815260206004820152601560248201527409ad2dcd2daeada40d2e640605c6060646e408aa89605b1b6044820152606490fd5b346105ce575f3660031901126105ce576002546040516001600160a01b039091168152602090f35b346105ce5760203660031901126105ce576004356001600160a01b038116908190036105ce575f52600b602052602060405f2054604051908152f35b346105ce575f3660031901126105ce576005546040516001600160a01b039091168152602090f35b346105ce575f3660031901126105ce576020906001548152f35b90601f8019910116810190811067ffffffffffffffff8211176105d257604052565b5f1981146106f95760010190565b634e487b7160e01b5f52601160045260245ffdfe60806040523461025657611577803803806100198161025a565b928339810190602081830312610256578051906001600160401b038211610256570181601f82011215610256578051906001600160401b0382116102425761006a601f8301601f191660200161025a565b928284526020838301011161025657815f9260208093018386015e8301015280516001600160401b03811161024257600254600181811c91168015610238575b602082101461022457601f81116101c1575b50602091601f8211600114610161579181925f92610156575b50508160011b915f199060031b1c1916176002555b33156101435760038054336001600160a01b03198216811790925560405191906001600160a01b03167f8be0079c531659141344cd1fd0a4f28419497f9722a3daafe3b4186f6b6457e05f80a36112f790816102808239f35b631e4fbdf760e01b5f525f60045260245ffd5b015190505f806100d5565b601f1982169260025f52805f20915f5b8581106101a957508360019510610191575b505050811b016002556100ea565b01515f1960f88460031b161c191690555f8080610183565b91926020600181928685015181550194019201610171565b60025f527f405787fa12a823e0f2b7631cc41b3ba8828b3321ca811111fa75cd3aa3bb5ace601f830160051c8101916020841061021a575b601f0160051c01905b81811061020f57506100bc565b5f8155600101610202565b90915081906101f9565b634e487b7160e01b5f52602260045260245ffd5b90607f16906100aa565b634e487b7160e01b5f52604160045260245ffd5b5f80fd5b6040519190601f01601f191682016001600160401b038111838210176102425760405256fe60806040526004361015610011575f80fd5b5f3560e01c8062fdd58e146100e357806301ffc9a7146100de5780630e89341c146100d95780632eb2c2d6146100d45780634e1273f4146100cf578063715018a6146100ca578063731133e9146100c55780638da5cb5b146100c0578063a22cb465146100bb578063e985e9c5146100b6578063f242432a146100b1578063f2fde38b146100ac5763f5298aca146100a7575f80fd5b610a77565b6109f1565b6108fd565b6108a1565b610837565b61080f565b610621565b6105c6565b610505565b610432565b61022c565b610186565b61012c565b600435906001600160a01b03821682036100fe57565b5f80fd5b602435906001600160a01b03821682036100fe57565b35906001600160a01b03821682036100fe57565b346100fe5760403660031901126100fe57602061016b61014a6100e8565b6024355f525f835260405f209060018060a01b03165f5260205260405f2090565b54604051908152f35b6001600160e01b03198116036100fe57565b346100fe5760203660031901126100fe5760206004356101a581610174565b63ffffffff60e01b16636cdb3d1360e11b81149081156101e3575b81156101d2575b506040519015158152f35b6301ffc9a760e01b1490505f6101c7565b6303a24d0760e21b811491506101c0565b805180835260209291819084018484015e5f828201840152601f01601f1916010190565b9060206102299281815201906101f4565b90565b346100fe5760203660031901126100fe576040515f6002548060011c9060018116908115610316575b6020831082146103025782855260208501919081156102e95750600114610297575b6102938461028781860382610334565b60405191829182610218565b0390f35b60025f9081529250907f405787fa12a823e0f2b7631cc41b3ba8828b3321ca811111fa75cd3aa3bb5ace5b8184106102d55750500161028782610277565b8054848401526020909301926001016102c2565b60ff191682525090151560051b01905061028782610277565b634e487b7160e01b5f52602260045260245ffd5b91607f1691610255565b634e487b7160e01b5f52604160045260245ffd5b90601f8019910116810190811067ffffffffffffffff82111761035657604052565b610320565b67ffffffffffffffff81116103565760051b60200190565b9080601f830112156100fe57813561038a8161035b565b926103986040519485610334565b81845260208085019260051b8201019283116100fe57602001905b8282106103c05750505090565b81358152602091820191016103b3565b67ffffffffffffffff811161035657601f01601f191660200190565b81601f820112156100fe57803590610403826103d0565b926104116040519485610334565b828452602083830101116100fe57815f926020809301838601378301015290565b346100fe5760a03660031901126100fe5761044b6100e8565b610453610102565b9060443567ffffffffffffffff81116100fe57610474903690600401610373565b60643567ffffffffffffffff81116100fe57610494903690600401610373565b906084359367ffffffffffffffff85116100fe576104b96104bf9536906004016103ec565b93610c83565b005b90602080835192838152019201905f5b8181106104de5750505090565b82518452602093840193909201916001016104d1565b9060206102299281815201906104c1565b346100fe5760403660031901126100fe5760043567ffffffffffffffff81116100fe57366023820112156100fe578060040135906105428261035b565b916105506040519384610334565b8083526024602084019160051b830101913683116100fe57602401905b8282106105ae578360243567ffffffffffffffff81116100fe576102939161059c6105a2923690600401610373565b90610d09565b604051918291826104f4565b602080916105bb84610118565b81520191019061056d565b346100fe575f3660031901126100fe576105de610dbd565b600380546001600160a01b031981169091555f906001600160a01b03167f8be0079c531659141344cd1fd0a4f28419497f9722a3daafe3b4186f6b6457e08280a3005b346100fe5760803660031901126100fe5761063a6100e8565b60443560243560643567ffffffffffffffff81116100fe576106609036906004016103ec565b91610669610dbd565b6001600160a01b038416156107fc5761069f60405192600184526020840152604083019160018352606084015260808301604052565b91909283518351908181036107e7576001600160a01b0383168481151585888a5f5b815181101561072e5780858560019360051b60208082880101519188010151926106ef575b505050016106c1565b6107249161070761071c925f525f60205260405f2090565b9060018060a01b03165f5260205260405f2090565b91825461127b565b90558885816106e6565b508492938660018351145f146107ac576020838101518582015160408051928352928201525f9133917fc3d58168c5ae7397731d063d5bbf3d657854427343f4c083240f7aacaa2d0f629190a45b61078257005b80516001036107a157906020806104bf95930151910151915f336111dd565b6104bf935f336110ae565b5f6040517f4a39dc06d4c0dbc64b70af90fd698a233a518aa5d07e595d983b8c0526c8f7fb3391806107df89898361129c565b0390a461077c565b635b05999160e01b5f5260045260245260445ffd5b632bfa23e760e11b5f525f60045260245ffd5b346100fe575f3660031901126100fe576003546040516001600160a01b039091168152602090f35b346100fe5760403660031901126100fe576108506100e8565b50602435801515036100fe5760405162461bcd60e51b815260206004820152601d60248201527f536f756c626f756e643a20617070726f76616c732064697361626c65640000006044820152606490fd5b346100fe5760403660031901126100fe57602060ff6108f16108c16100e8565b6108c9610102565b6001600160a01b039182165f9081526001865260408082209290931681526020919091522090565b54166040519015158152f35b346100fe5760a03660031901126100fe576109166100e8565b61091e610102565b604435906064359260843567ffffffffffffffff81116100fe576109469036906004016103ec565b926001600160a01b03821633811415806109ce575b6109b8576001600160a01b038416156107fc57156109a6576104bf9461099e60405192600184526020840152604083019160018352606084015260808301604052565b929091610de4565b626a0d4560e21b5f525f60045260245ffd5b63711bec9160e11b5f523360045260245260445ffd5b505f81815260016020908152604080832033845290915290205460ff161561095b565b346100fe5760203660031901126100fe57610a0a6100e8565b610a12610dbd565b6001600160a01b03168015610a6457600380546001600160a01b0319811683179091556001600160a01b03167f8be0079c531659141344cd1fd0a4f28419497f9722a3daafe3b4186f6b6457e05f80a3005b631e4fbdf760e01b5f525f60045260245ffd5b346100fe5760603660031901126100fe57610a906100e8565b602435604435610a9e610dbd565b6001600160a01b038316156109a657610ad460405192600184526020840152604083019160018352606084015260808301604052565b60405191926020925f90610ae88582610334565b526001600160a01b038116801515949093908580610c7c575b610c3f5780518451908181036107e75750505f5b8151811015610bb7578060051b8784808386010151928801015190610b3f575b5050600101610b15565b610b5486610707845f525f60205260405f2090565b54818110610b8057866107076001959493610b789303935f525f60205260405f2090565b55905f610b35565b6040516303dee4c560e01b81526001600160a01b038816600482015260248101919091526044810182905260648101839052608490fd5b5f8683878660018351148514610c0b579182015191015160408051928352602083019190915233917fc3d58168c5ae7397731d063d5bbf3d657854427343f4c083240f7aacaa2d0f6291819081015b0390a4005b50610c067f4a39dc06d4c0dbc64b70af90fd698a233a518aa5d07e595d983b8c0526c8f7fb9160405191829133958361129c565b60405162461bcd60e51b81526004810183905260156024820152745342543a206e6f6e2d7472616e7366657261626c6560581b6044820152606490fd5b505f610b01565b939291906001600160a01b0385163381141580610cbe575b6109b8576001600160a01b038216156107fc57156109a657610cbc94610de4565b565b505f81815260016020908152604080832033845290915290205460ff1615610c9b565b8051821015610cf55760209160051b010190565b634e487b7160e01b5f52603260045260245ffd5b91909180518351808203610da8575050805190610d258261035b565b91610d336040519384610334565b808352610d42601f199161035b565b013660208401375f5b8151811015610da15780610d9060019260051b60208082870101519189010151905f918252602082815260408084206001600160a01b03909316845291905290205490565b610d9a8286610ce1565b5201610d4b565b5090925050565b635b05999160e01b5f5260045260245260445ffd5b6003546001600160a01b03163303610dd157565b63118cdaa760e01b5f523360045260245ffd5b946001600160a01b03861680151594929390918580611005575b610fc85781518451908181036107e7575092966001600160a01b03861680151594505f5b8451811015610efb578060051b90898988602080868b010151958c01015192610e7a575b93600194610e58575b50505001610e22565b610e709161070761071c925f525f60205260405f2090565b90555f8981610e4f565b50509091610e938d610707835f525f60205260405f2090565b54828110610ec4578291898f610ebb600197968f950391610707855f525f60205260405f2090565b55909450610e46565b6040516303dee4c560e01b81526001600160a01b038f16600482015260248101919091526044810183905260648101829052608490fd5b5091989593929790965060018851145f14610f8e5760208881015186820151604080519283529282015233917fc3d58168c5ae7397731d063d5bbf3d657854427343f4c083240f7aacaa2d0f6291a45b610f57575b5050505050565b8451600103610f7d57602080610f7396015192015192336111dd565b5f80808080610f50565b610f89949192336110ae565b610f73565b6040517f4a39dc06d4c0dbc64b70af90fd698a233a518aa5d07e595d983b8c0526c8f7fb339180610fc0898d8361129c565b0390a4610f4b565b60405162461bcd60e51b81526020600482015260156024820152745342543a206e6f6e2d7472616e7366657261626c6560581b6044820152606490fd5b506001600160a01b0385161515610dfe565b908160209103126100fe575161022981610174565b6001600160a01b0391821681529116602082015260a0604082018190526102299491939192611071929161106391908601906104c1565b9084820360608601526104c1565b9160808184039101526101f4565b3d156110a9573d90611090826103d0565b9161109e6040519384610334565b82523d5f602084013e565b606090565b9091949293853b6110c2575b505050505050565b6020936110e491604051968795869563bc197c8160e01b87526004870161102c565b03815f6001600160a01b0387165af15f9181611173575b50611135575061110961107f565b805191908261112e57632bfa23e760e11b5f526001600160a01b03821660045260245ffd5b9050602001fd5b6001600160e01b0319166343e6837f60e01b0161115857505f80808080806110ba565b632bfa23e760e11b5f526001600160a01b031660045260245ffd5b61119691925060203d60201161119d575b61118e8183610334565b810190611017565b905f6110fb565b503d611184565b6001600160a01b039182168152911660208201526040810191909152606081019190915260a060808201819052610229929101906101f4565b9091949293853b6111f057505050505050565b60209361121291604051968795869563f23a6e6160e01b8752600487016111a4565b03815f6001600160a01b0387165af15f918161125a575b50611237575061110961107f565b6001600160e01b031916630dc5919f60e01b0161115857505f80808080806110ba565b61127491925060203d60201161119d5761118e8183610334565b905f611229565b9190820180921161128857565b634e487b7160e01b5f52601160045260245ffd5b90916112b3610229936040845260408401906104c1565b9160208184039101526104c156fea26469706673582212207b69c34a5bccc2e5a148722506c2ae8f4619318bdae461b32cfd05d830b4ae2464736f6c634300081e003360a0806040523461019f57602081610e31803803809161001f82856101c9565b83398101031261019f57516001600160a01b0381169081900361019f5733156101b657600180546001600160a01b03199081169091555f8054339281168317825560405192916001600160a01b03909116907f8be0079c531659141344cd1fd0a4f28419497f9722a3daafe3b4186f6b6457e09080a36301ffc9a760e01b8152631313998b60e31b6004820152602081602481855afa9081156101ab575f9161016c575b501561012757608052600380546001600160a01b03191633179055604051610c30908161020182396080518181816101d6015281816102c601528181610364015281816103ec015281816104560152818161097601528181610a0e0152610aff0152f35b60405162461bcd60e51b815260206004820152601e60248201527f49456e747279506f696e7420696e74657266616365206d69736d6174636800006044820152606490fd5b90506020813d6020116101a3575b81610187602093836101c9565b8101031261019f5751801515810361019f575f6100c3565b5f80fd5b3d915061017a565b6040513d5f823e3d90fd5b631e4fbdf760e01b5f525f60045260245ffd5b601f909101601f19168101906001600160401b038211908210176101ec57604052565b634e487b7160e01b5f52604160045260245ffdfe60806040526004361015610011575f80fd5b5f5f3560e01c80630396cb60146109e6578063205c28781461095157806352b7512c14610676578063715018a61461061157806379ba50971461058c5780637c627b21146104ac5780638da5cb5b14610485578063b0d691fe14610440578063bb9fe6bf146103d0578063c23a5cea1461033f578063c399ec881461029a578063c4d66de814610250578063d0e30db0146101c7578063dbd01de11461019e578063dffeadd014610175578063e30c39781461014c5763f2fde38b146100d5575f80fd5b34610149576020366003190112610149576004356001600160a01b0381169081900361014757610103610ad7565b600180546001600160a01b0319168217905581546001600160a01b03167f38d16b8cac22d99fc7c124b9cd0de2d3fa1faef420bfe791d8c362d765e227008380a380f35b505b80fd5b50346101495780600319360112610149576001546040516001600160a01b039091168152602090f35b50346101495780600319360112610149576003546040516001600160a01b039091168152602090f35b50346101495780600319360112610149576002546040516001600160a01b039091168152602090f35b508060031936011261014957807f00000000000000000000000000000000000000000000000000000000000000006001600160a01b0316803b1561024d57816024916040519283809263b760faf960e01b825230600483015234905af18015610242576102315750f35b8161023b91610aa1565b6101495780f35b6040513d84823e3d90fd5b50fd5b5034610149576020366003190112610149576004356001600160a01b038116908190036101475761027f610ad7565b6bffffffffffffffffffffffff60a01b600254161760025580f35b50346101495780600319360112610149576040516370a0823160e01b81523060048201526020816024817f00000000000000000000000000000000000000000000000000000000000000006001600160a01b03165afa908115610242578291610309575b602082604051908152f35b90506020813d602011610337575b8161032460209383610aa1565b810103126101475760209150515f6102fe565b3d9150610317565b5034610149576020366003190112610149578061035a610a77565b610362610ad7565b7f00000000000000000000000000000000000000000000000000000000000000006001600160a01b031690813b156103cc5760405163611d2e7560e11b81526001600160a01b0390911660048201529082908290602490829084905af18015610242576102315750f35b5050fd5b50346101495780600319360112610149576103e9610ad7565b807f00000000000000000000000000000000000000000000000000000000000000006001600160a01b0316803b1561024d5781809160046040518094819363bb9fe6bf60e01b83525af18015610242576102315750f35b50346101495780600319360112610149576040517f00000000000000000000000000000000000000000000000000000000000000006001600160a01b03168152602090f35b5034610149578060031936011261014957546040516001600160a01b039091168152602090f35b50346101495760803660031901126101495760036004351015610149578060243567ffffffffffffffff811161024d573660238201121561024d57806004013567ffffffffffffffff81116103cc57602482019082013660248201116105875760248260409261051a610afd565b0301126103cc5761052c604491610a8d565b6002546001600160a01b039081169392909201359161054d91168314610b9f565b813b156103cc578291604483926040519485938492637fa10f2d60e01b84526004840152833560248401525af18015610242576102315750f35b505050fd5b5034610149578060031936011261014957600154336001600160a01b03909116036105fe57600180546001600160a01b0319908116909155815433918116821783556001600160a01b03167f8be0079c531659141344cd1fd0a4f28419497f9722a3daafe3b4186f6b6457e08380a380f35b63118cdaa760e01b815233600452602490fd5b503461014957806003193601126101495761062a610ad7565b600180546001600160a01b03199081169091558154908116825581906001600160a01b03167f8be0079c531659141344cd1fd0a4f28419497f9722a3daafe3b4186f6b6457e08280a380f35b50346101495760603660031901126101495760043567ffffffffffffffff8111610147578060040190610120600319823603011261094d57604435916106ba610afd565b6106c760e4830182610b6c565b806014116108cd5760209082018290036013190112610949576001600160a01b03906106f590601401610a8d565b6002546001600160a01b0316939161070f91168414610b9f565b604051631e2b2c7960e31b815233600482015260248101869052602081604481875afa90811561093e578691610903575b50156108d157606401906107548282610b6c565b6004116108cd5763e300863360e01b90356001600160e01b0319160161089957849161077f91610b6c565b602492919211610149576108955781906001600160a01b03906107a490600401610a8d565b160361085e57803b1561085a575f8091602460405180948193632037287b60e11b83528760048401525af1801561084f57610839575b5060609060018060a01b036002541660405191602083019182526040830152604082526108078383610aa1565b604051938492604084525180928160408601528585015e82820184018190526020830152601f01601f19168101030190f35b6108469192505f90610aa1565b5f9060606107da565b6040513d5f823e3d90fd5b5f80fd5b60405162461bcd60e51b815260206004820152600f60248201526e0e8c2e4cecae840dad2e6dac2e8c6d608b1b6044820152606490fd5b8380fd5b60405162461bcd60e51b815260206004820152600c60248201526b696e76616c6964206578656360a01b6044820152606490fd5b8580fd5b60405162461bcd60e51b815260206004820152600a6024820152693737ba1036b2b6b132b960b11b6044820152606490fd5b90506020813d602011610936575b8161091e60209383610aa1565b810103126108cd575180151581036108cd575f610740565b3d9150610911565b6040513d88823e3d90fd5b8480fd5b8280fd5b5034610149576040366003190112610149578061096c610a77565b610974610ad7565b7f00000000000000000000000000000000000000000000000000000000000000006001600160a01b031690813b156103cc5760405163040b850f60e31b81526001600160a01b03909116600482015260248035908201529082908290604490829084905af18015610242576102315750f35b50602036600319011261085a5760043563ffffffff811680910361085a57610a0c610ad7565b7f00000000000000000000000000000000000000000000000000000000000000006001600160a01b031690813b1561085a575f90602460405180948193621cb65b60e51b8352600483015234905af1801561084f57610a69575080f35b610a7591505f90610aa1565b005b600435906001600160a01b038216820361085a57565b35906001600160a01b038216820361085a57565b90601f8019910116810190811067ffffffffffffffff821117610ac357604052565b634e487b7160e01b5f52604160045260245ffd5b5f546001600160a01b03163303610aea57565b63118cdaa760e01b5f523360045260245ffd5b7f00000000000000000000000000000000000000000000000000000000000000006001600160a01b03163303610b2f57565b60405162461bcd60e51b815260206004820152601560248201527414d95b99195c881b9bdd08115b9d1c9e541bda5b9d605a1b6044820152606490fd5b903590601e198136030182121561085a570180359067ffffffffffffffff821161085a5760200191813603831361085a57565b15610ba657565b60405162461bcd60e51b815260206004820152602660248201527f796f75722061646472657373206973206e6f7420666f7220746869732070617960448201526536b0b9ba32b960d11b6064820152608490fdfea2646970667358221220f7f8670632f8e9933ccb2cd345019081b8ddfb525f3e19d57c515b6a5f26f6bf64736f6c634300081e003360803461011257601f61141038819003918201601f19168301916001600160401b038311848410176101165780849260e0946040528339810103126101125780519061004d6020820161012a565b6100596040830161012a565b60608301519060808401519260c061007360a0870161012a565b9501516001600160a01b0381169690879003610112575f908155600180546001600160a01b03199081166001600160a01b03948516908117909255600280548216909217909155600380548216948416948517905560048054821690941790935560069390935560079390935560089190915560058054821693909216929092179055600a80549091169190911790556040516112d1908161013f8239f35b5f80fd5b634e487b7160e01b5f52604160045260245ffd5b51906001600160a01b03821682036101125756fe6080806040526004361015610012575f80fd5b5f905f3560e01c90816302d05d3f14610d1b5750806303fb5fb114610cf357806311dbf9dc14610cd75780631e8ad4c214610c4657806327ac058914610c1e5780633c1f26a114610ba3578063406e50f614610b0957806340eedabb14610ae157806367b220a514610a535780637a63406d14610a365780637fa10f2d14610972578063848e548a14610895578063928a1029146107be578063a0addd86146106ac578063a0af288c14610688578063a1d8540614610620578063a230c524146105fc578063a7a1ed72146105d3578063b349d1081461040a578063b688a36314610394578063b9209e3314610370578063bd642f0614610316578063cf309012146102f8578063d0e30db0146102da578063db512e85146102a4578063dffeadd01461027b578063f15963c8146101cc578063fa6f39361461019e5763fbac39511461015d575f80fd5b3461019b57602036600319011261019b5760209060ff906040906001600160a01b03610187610d3e565b168152600984522054166040519015158152f35b80fd5b503461019b57602036600319011261019b5760206101c26101bd610d3e565b610fae565b6040519015158152f35b503461019b57604036600319011261019b576101e6610d3e565b600a54604051627eeac760e11b81526001600160a01b03928316600482015260248035908201529160209183916044918391165afa908115610270578291610236575b6020821515604051908152f35b90506020813d602011610268575b8161025160209383610e28565b810103126102645760209150515f610229565b5080fd5b3d9150610244565b6040513d84823e3d90fd5b503461019b578060031936011261019b576004546040516001600160a01b039091168152602090f35b503461019b57602036600319011261019b5760206102c0610d3e565b6002546040516001600160a01b0392831691909216148152f35b503461019b578060031936011261019b576020600754604051908152f35b503461019b578060031936011261019b576020600854604051908152f35b503461019b57608036600319011261019b576044356001600160a01b038116810361026457606435600381101561036c576103699161035c61035733610f67565b610eb3565b3390602435600435611139565b80f35b8280fd5b503461019b57602036600319011261019b5760206101c261038f610d3e565b610f67565b503461019b578060031936011261019b576103ae33610eee565b6103d45733815260096020526103cb60ff60408320541615610e7d565b61036933610ff5565b60405162461bcd60e51b815260206004820152600e60248201526d20b63932b0b23c9026b2b6b132b960911b6044820152606490fd5b503461019b57602036600319011261019b57610424610d3e565b61043561043033610fae565b610dec565b61043e81610fae565b61059e576001600160a01b0381168083526009602052604083205490919060ff166105675761046c81610eee565b610500575b61047a90610f67565b610498575b8152600960205260408120805460ff1916600117905580f35b600a5482906001600160a01b0316803b1561026457818091606460405180948193637a94c56560e11b835288600484015260016024840152600160448401525af18015610270576104eb575b505061047f565b816104f591610e28565b61026457815f6104e4565b600a5483906001600160a01b0316803b1561026457818091606460405180948193637a94c56560e11b8352896004840152816024840152600160448401525af1801561027057610552575b5050610471565b8161055c91610e28565b61036c57825f61054b565b60405162461bcd60e51b815260206004820152600f60248201526e105b1c9958591e48109b1bd8dad959608a1b6044820152606490fd5b60405162461bcd60e51b815260206004820152600d60248201526c3737ba1026b7b232b930ba37b960991b6044820152606490fd5b503461019b578060031936011261019b57600a546040516001600160a01b039091168152602090f35b503461019b57602036600319011261019b5760206101c261061b610d3e565b610eee565b503461019b5761062f36610d54565b9061064161063c33610eee565b610d6a565b61064a33610fae565b15610659579061036991611208565b6040519182527f36a5ad14f1f272941dbb3a98a46b82bd8140a0375747500e9e6f071c8c365e7e60203393a380f35b503461019b5761036961069a36610d54565b906106a761035733610f67565b611208565b503461019b57602036600319011261019b576106c6610d3e565b6002546001600160a01b0316330361078c576001600160a01b0381168252600960205260408220546106fb9060ff1615610e7d565b61070481610fae565b6107535761071181610f67565b1561071f57610369906110d1565b60405162461bcd60e51b815260206004820152600c60248201526b139bdd0815995c9a599a595960a21b6044820152606490fd5b60405162461bcd60e51b815260206004820152601160248201527020b63932b0b23c9026b7b232b930ba37b960791b6044820152606490fd5b60405162461bcd60e51b815260206004820152600a6024820152692737ba103632b0b232b960b11b6044820152606490fd5b503461019b57602036600319011261019b576107d8610d3e565b6107e461043033610fae565b6001600160a01b0381168252600960205260408220546108079060ff1615610e7d565b61081081610f67565b61085d5761081d81610eee565b1561082b5761036990611069565b60405162461bcd60e51b815260206004820152600a6024820152692737ba1026b2b6b132b960b11b6044820152606490fd5b60405162461bcd60e51b815260206004820152601060248201526f105b1c9958591e4815995c9a599a595960821b6044820152606490fd5b503461093f576108a436610d54565b906108b161043033610fae565b602060018060a01b03600454169160246040518094819363081fe24560e31b835260048301525afa908115610934575f91610943575b506001600160a01b031690813b1561093f575f9160248392604051948593849263f5fe957d60e01b845260048401525af1801561093457610926575080f35b61093291505f90610e28565b005b6040513d5f823e3d90fd5b5f80fd5b610965915060203d60201161096b575b61095d8183610e28565b810190610e5e565b5f6108e7565b503d610953565b3461093f5761098036610d54565b9061099660018060a01b03600554163314610da3565b60085490808210610a02576109aa91610ddf565b600855600754908082106109c6576109c191610ddf565b600755005b60405162461bcd60e51b81526020600482015260146024820152731a5b9cdd59999a58da595b9d0819195c1bdcda5d60621b6044820152606490fd5b60405162461bcd60e51b815260206004820152600c60248201526b6f7665722d72656c6561736560a01b6044820152606490fd5b3461093f575f36600319011261093f576020600654604051908152f35b3461093f57602036600319011261093f57610a6c610d3e565b610a7861043033610fae565b6001600160a01b03165f8181526009602052604090205460ff1615610aae575f908152600960205260409020805460ff19169055005b60405162461bcd60e51b815260206004820152600b60248201526a139bdd08109b1bd8dad95960aa1b6044820152606490fd5b3461093f575f36600319011261093f576002546040516001600160a01b039091168152602090f35b3461093f57602036600319011261093f57600435610b3260018060a01b03600554163314610da3565b6007549080610b446008548094610ddf565b10610b6b578101809111610b5757600855005b634e487b7160e01b5f52601160045260245ffd5b60405162461bcd60e51b815260206004820152601060248201526f0c2ecc2d2d840dcdee840cadcdeeaced60831b6044820152606490fd5b3461093f57606036600319011261093f57602435604435600435600382101561093f57610bd261063c33610eee565b610bdb33610f67565b15610bee57916109329233913391611139565b90506040519182527f327a4db4fc24b12e98280aeb0fc58be66e490c151283caa9167e652c193584ce60203393a3005b3461093f575f36600319011261093f576003546040516001600160a01b039091168152602090f35b3461093f575f36600319011261093f576003546001600160a01b03163303610ca757600154610c7d906001600160a01b0316610ff5565b600154610c92906001600160a01b0316611069565b600154610932906001600160a01b03166110d1565b60405162461bcd60e51b81526020600482015260086024820152673737ba1036b0b4b760c11b6044820152606490fd5b3461093f575f36600319011261093f5760205f54604051908152f35b3461093f575f36600319011261093f576005546040516001600160a01b039091168152602090f35b3461093f575f36600319011261093f576001546001600160a01b03168152602090f35b600435906001600160a01b038216820361093f57565b604090600319011261093f576004359060243590565b15610d7157565b60405162461bcd60e51b815260206004820152600a6024820152692737ba1036b2b6b132b960b11b6044820152606490fd5b15610daa57565b60405162461bcd60e51b815260206004820152600d60248201526c3737ba103830bcb6b0b9ba32b960991b6044820152606490fd5b91908203918211610b5757565b15610df357565b60405162461bcd60e51b815260206004820152600d60248201526c2737ba1036b7b232b930ba37b960991b6044820152606490fd5b90601f8019910116810190811067ffffffffffffffff821117610e4a57604052565b634e487b7160e01b5f52604160045260245ffd5b9081602091031261093f57516001600160a01b038116810361093f5790565b15610e8457565b60405162461bcd60e51b8152602060048201526007602482015266109b1bd8dad95960ca1b6044820152606490fd5b15610eba57565b60405162461bcd60e51b815260206004820152600c60248201526b139bdd081d995c9a599a595960a21b6044820152606490fd5b600a54604051627eeac760e11b81526001600160a01b0392831660048201525f60248201529160209183916044918391165afa908115610934575f91610f35575b50151590565b90506020813d602011610f5f575b81610f5060209383610e28565b8101031261093f57515f610f2f565b3d9150610f43565b600a54604051627eeac760e11b81526001600160a01b039283166004820152600160248201529160209183916044918391165afa908115610934575f91610f355750151590565b600a54604051627eeac760e11b81526001600160a01b039283166004820152600260248201529160209183916044918391165afa908115610934575f91610f355750151590565b600a546001600160a01b031690813b1561093f5760405163731133e960e01b81526001600160a01b0390911660048201525f602482018190526001604483015260806064830152608482018190529091829060a490829084905af180156109345761105d5750565b5f61106791610e28565b565b600a546001600160a01b031690813b1561093f5760405163731133e960e01b81526001600160a01b0390911660048201526001602482018190526044820152608060648201525f608482018190529091829060a490829084905af180156109345761105d5750565b600a546001600160a01b031690813b1561093f5760405163731133e960e01b81526001600160a01b0390911660048201526002602482015260016044820152608060648201525f608482018190529091829060a490829084905af180156109345761105d5750565b9392909360206004549160246040518094819363081fe24560e31b8352600483015260018060a01b03165afa908115610934575f916111e9575b506001600160a01b031691823b1561093f5760405163219acbcf60e21b815260048101959095526001600160a01b03908116602486015216604484015260038210156111d5576084835f8193819560648401525af180156109345761105d5750565b634e487b7160e01b5f52602160045260245ffd5b611202915060203d60201161096b5761095d8183610e28565b5f611173565b60206004549160246040518094819363081fe24560e31b8352600483015260018060a01b03165afa908115610934575f9161127c575b506001600160a01b031690813b1561093f575f91602483926040519485938492631752a48760e21b845260048401525af180156109345761105d5750565b611295915060203d60201161096b5761095d8183610e28565b5f61123e56fea264697066735822122005ea84e50b6aba9c77c692f6e1c90298c40e26815888f881db2d9454bbb169f464736f6c634300081e0033a2646970667358221220c8543912d6267c1d9ed455aa176a14f829fe089ab4194c8e33c3fdf95c54178d64736f6c634300081e0033",
    "sourcePath": "c:/Users/wsxe2/Desktop/ClusterPedia/contracts/MainSystem.sol",
    "compiler": {
        "name": "solc",
        "version": "0.8.30+commit.73712a01"
    },
    "functionHashes": {
        "addressToClusterId(address)": "d02c21f4",
        "addressToTopicId(address)": "1ec56d7c",
        "claimNFT()": "672756ad",
        "claimNFTAddr()": "10a61fd6",
        "clusterIdToAddrs(uint256)": "62b7493a",
        "createCluster(bytes32)": "3480f7db",
        "createTopic(bytes32)": "f90ace66",
        "entryPoint()": "b0d691fe",
        "entryPointAddr()": "e3940c28",
        "nextClusterId()": "4983dc44",
        "nextTopicId()": "0f5de4b2",
        "topicFactory()": "2b899a34",
        "topicFactoryAddr()": "e31a49c1",
        "topicIdToAddrs(uint256)": "40ff1228"
    },
    "gasEstimates": {
        "creation": {
            "codeDepositCost": "3224600",
            "executionCost": "infinite",
            "totalCost": "infinite"
        },
        "external": {
            "addressToClusterId(address)": "2599",
            "addressToTopicId(address)": "2416",
            "claimNFT()": "2464",
            "claimNFTAddr()": "2307",
            "clusterIdToAddrs(uint256)": "2505",
            "createCluster(bytes32)": "infinite",
            "createTopic(bytes32)": "infinite",
            "entryPoint()": "2486",
            "entryPointAddr()": "2552",
            "nextClusterId()": "2396",
            "nextTopicId()": "2253",
            "topicFactory()": "2351",
            "topicFactoryAddr()": "2530",
            "topicIdToAddrs(uint256)": "2461"
        }
    }
}